{
  "transactions": [
    {
      "hash": "0x9b6da86d5f72503b5a2567f6ba718ccbe3b1a7b316a2846c17a472dc27de2020",
      "transactionType": "CALL",
      "contractName": null,
      "contractAddress": "0x263ce78fef26600e4e428cebc91c2a52484b4fbf",
      "function": null,
      "arguments": null,
      "transaction": {
        "from": "0xf7f012df63cc03a63154f1c73cfab3b94aca3f21",
        "to": "0x263ce78fef26600e4e428cebc91c2a52484b4fbf",
        "gas": "0x11588",
        "value": "0x0",
        "input": "0x40c10f19000000000000000000000000f7f012df63cc03a63154f1c73cfab3b94aca3f210000000000000000000000000000000000000000000000056bc75e2d63100000",
        "nonce": "0x3",
        "chainId": "0x88bb0"
      },
      "additionalContracts": [],
      "isFixedGasLimit": false
    },
    {
      "hash": "0xe88e195b19da51e74a238a12b23bb72a2611628c3773ccece4f1fdc7da9fd1ad",
      "transactionType": "CALL",
      "contractName": null,
      "contractAddress": "0x263ce78fef26600e4e428cebc91c2a52484b4fbf",
      "function": "approve(address,uint256)",
      "arguments": [
        "0x349E34cf714178C1eFe87C2164d58a7184C23F30",
        "10000000000000000000"
      ],
      "transaction": {
        "from": "0xf7f012df63cc03a63154f1c73cfab3b94aca3f21",
        "to": "0x263ce78fef26600e4e428cebc91c2a52484b4fbf",
        "gas": "0xfa2b",
        "value": "0x0",
        "input": "0x095ea7b3000000000000000000000000349e34cf714178c1efe87c2164d58a7184c23f300000000000000000000000000000000000000000000000008ac7230489e80000",
        "nonce": "0x4",
        "chainId": "0x88bb0"
      },
      "additionalContracts": [],
      "isFixedGasLimit": false
    },
    {
      "hash": "0xc34ec9a9110c859c5bc5f5d347fa77dfc7c860b57ebc860153dce6e5e138e911",
      "transactionType": "CALL",
      "contractName": null,
      "contractAddress": "0x349e34cf714178c1efe87c2164d58a7184c23f30",
      "function": "deposit(uint256,address)",
      "arguments": [
        "10000000000000000000",
        "0xf7F012DF63CC03A63154f1c73CfaB3B94AcA3F21"
      ],
      "transaction": {
        "from": "0xf7f012df63cc03a63154f1c73cfab3b94aca3f21",
        "to": "0x349e34cf714178c1efe87c2164d58a7184c23f30",
        "gas": "0x29583",
        "value": "0x0",
        "input": "0x6e553f650000000000000000000000000000000000000000000000008ac7230489e80000000000000000000000000000f7f012df63cc03a63154f1c73cfab3b94aca3f21",
        "nonce": "0x5",
        "chainId": "0x88bb0"
      },
      "additionalContracts": [],
      "isFixedGasLimit": false
    }
  ],
  "receipts": [
    {
      "status": "0x1",
      "cumulativeGasUsed": "0x643179",
      "logs": [
        {
          "address": "0x263ce78fef26600e4e428cebc91c2a52484b4fbf",
          "topics": [
            "0xddf252ad1be2c89b69c2b068fc378daa952ba7f163c4a11628f55a4df523b3ef",
            "0x0000000000000000000000000000000000000000000000000000000000000000",
            "0x000000000000000000000000f7f012df63cc03a63154f1c73cfab3b94aca3f21"
          ],
          "data": "0x0000000000000000000000000000000000000000000000056bc75e2d63100000",
          "blockHash": "0xedc464194baae5ff5ada45afb3741cabdfd66d7872c084fe88412fb2009ad5a1",
          "blockNumber": "0x255a50",
          "blockTimestamp": "0x69bc0130",
          "transactionHash": "0x9b6da86d5f72503b5a2567f6ba718ccbe3b1a7b316a2846c17a472dc27de2020",
          "transactionIndex": "0x28",
          "logIndex": "0x16",
          "removed": false
        }
      ],
      "logsBloom": "0x00000000000000000000000000000000000000000000000000000000000000000000000000000000000000000000000000000000000000000000200000020000000000000000000000000008000000000000000000000000000000000000000000000000020000000010000000000800000000000000000000000010000000000000000000000000000000000000000000000000000000000000000000000000000000000000000000000000000000000000000000000000000000000000000000000002000000000000000000000000000000000000000080000000000020000000001000000000000000000000000000000000000000000000000080000000",
      "type": "0x2",
      "transactionHash": "0x9b6da86d5f72503b5a2567f6ba718ccbe3b1a7b316a2846c17a472dc27de2020",
      "transactionIndex": "0x28",
      "blockHash": "0xedc464194baae5ff5ada45afb3741cabdfd66d7872c084fe88412fb2009ad5a1",
      "blockNumber": "0x255a50",
      "gasUsed": "0xc8ef",
      "effectiveGasPrice": "0x3e645198",
      "from": "0xf7f012df63cc03a63154f1c73cfab3b94aca3f21",
      "to": "0x263ce78fef26600e4e428cebc91c2a52484b4fbf",
      "contractAddress": null
    },
    {
      "status": "0x1",
      "cumulativeGasUsed": "0x2a7c860",
      "logs": [
        {
          "address": "0x263ce78fef26600e4e428cebc91c2a52484b4fbf",
          "topics": [
            "0x8c5be1e5ebec7d5bd14f71427d1e84f3dd0314c0f7b2291e5b200ac8c7c3b925",
            "0x000000000000000000000000f7f012df63cc03a63154f1c73cfab3b94aca3f21",
            "0x000000000000000000000000349e34cf714178c1efe87c2164d58a7184c23f30"
          ],
          "data": "0x0000000000000000000000000000000000000000000000008ac7230489e80000",
          "blockHash": "0xedc464194baae5ff5ada45afb3741cabdfd66d7872c084fe88412fb2009ad5a1",
          "blockNumber": "0x255a50",
          "blockTimestamp": "0x69bc0130",
          "transactionHash": "0xe88e195b19da51e74a238a12b23bb72a2611628c3773ccece4f1fdc7da9fd1ad",
          "transactionIndex": "0x82",
          "logIndex": "0x101",
          "removed": false
        }
      ],
      "logsBloom": "0x00000000000000000000000000000000000000000000000000000000000000000000000000000000000000000000000000000040000000000000200000220000000000000000000000000010000000000000000000000000000000000000000000000000000000000010000000000000000000000000000000000000000000000000000000000000000000000000000000000000000000000000000000000000020000000000000000000000000000000000000000000000000000000000000000000000000000000004000000000000000000000000000080000000000000000010001000000000000000000000000000000000000000000000000080000000",
      "type": "0x2",
      "transactionHash": "0xe88e195b19da51e74a238a12b23bb72a2611628c3773ccece4f1fdc7da9fd1ad",
      "transactionIndex": "0x82",
      "blockHash": "0xedc464194baae5ff5ada45afb3741cabdfd66d7872c084fe88412fb2009ad5a1",
      "blockNumber": "0x255a50",
      "gasUsed": "0xb51f",
      "effectiveGasPrice": "0x3e645198",
      "from": "0xf7f012df63cc03a63154f1c73cfab3b94aca3f21",
      "to": "0x263ce78fef26600e4e428cebc91c2a52484b4fbf",
      "contractAddress": null
    },
    {
      "status": "0x1",
      "cumulativeGasUsed": "0x2a98cb1",
      "logs": [
        {
          "address": "0x263ce78fef26600e4e428cebc91c2a52484b4fbf",
          "topics": [
            "0xddf252ad1be2c89b69c2b068fc378daa952ba7f163c4a11628f55a4df523b3ef",
            "0x000000000000000000000000f7f012df63cc03a63154f1c73cfab3b94aca3f21",
            "0x000000000000000000000000349e34cf714178c1efe87c2164d58a7184c23f30"
          ],
          "data": "0x0000000000000000000000000000000000000000000000008ac7230489e80000",
          "blockHash": "0xedc464194baae5ff5ada45afb3741cabdfd66d7872c084fe88412fb2009ad5a1",
          "blockNumber": "0x255a50",
          "blockTimestamp": "0x69bc0130",
          "transactionHash": "0xc34ec9a9110c859c5bc5f5d347fa77dfc7c860b57ebc860153dce6e5e138e911",
          "transactionIndex": "0x83",
          "logIndex": "0x102",
          "removed": false
        },
        {
          "address": "0x349e34cf714178c1efe87c2164d58a7184c23f30",
          "topics": [
            "0xddf252ad1be2c89b69c2b068fc378daa952ba7f163c4a11628f55a4df523b3ef",
            "0x0000000000000000000000000000000000000000000000000000000000000000",
            "0x000000000000000000000000f7f012df63cc03a63154f1c73cfab3b94aca3f21"
          ],
          "data": "0x0000000000000000000000000000000000000000000000008ac7230489e80000",
          "blockHash": "0xedc464194baae5ff5ada45afb3741cabdfd66d7872c084fe88412fb2009ad5a1",
          "blockNumber": "0x255a50",
          "blockTimestamp": "0x69bc0130",
          "transactionHash": "0xc34ec9a9110c859c5bc5f5d347fa77dfc7c860b57ebc860153dce6e5e138e911",
          "transactionIndex": "0x83",
          "logIndex": "0x103",
          "removed": false
        },
        {
          "address": "0x349e34cf714178c1efe87c2164d58a7184c23f30",
          "topics": [
            "0xdcbc1c05240f31ff3ad067ef1ee35ce4997762752e3a095284754544f4c709d7",
            "0x000000000000000000000000f7f012df63cc03a63154f1c73cfab3b94aca3f21",
            "0x000000000000000000000000f7f012df63cc03a63154f1c73cfab3b94aca3f21"
          ],
          "data": "0x0000000000000000000000000000000000000000000000008ac7230489e800000000000000000000000000000000000000000000000000008ac7230489e80000",
          "blockHash": "0xedc464194baae5ff5ada45afb3741cabdfd66d7872c084fe88412fb2009ad5a1",
          "blockNumber": "0x255a50",
          "blockTimestamp": "0x69bc0130",
          "transactionHash": "0xc34ec9a9110c859c5bc5f5d347fa77dfc7c860b57ebc860153dce6e5e138e911",
          "transactionIndex": "0x83",
          "logIndex": "0x104",
          "removed": false
        }
      ],
      "logsBloom": "0x00000000000000000000000000000000000000000000000000000000000000000000000000000000000000000000000000000040000100000000200000020000000000400000000000000018000000000000000000000080040000000000000000000000020000000010000000000800000000000004000000000010000000000000000000000000000000000000000000000000000000000000000000000000000000000000000000000000000000000000000000000000000000000000000000000002000000000004000000000000000000000008000080000000000020000000001000000000000000000000000000000000000000000000000080000000",
      "type": "0x2",
      "transactionHash": "0xc34ec9a9110c859c5bc5f5d347fa77dfc7c860b57ebc860153dce6e5e138e911",
      "transactionIndex": "0x83",
      "blockHash": "0xedc464194baae5ff5ada45afb3741cabdfd66d7872c084fe88412fb2009ad5a1",
      "blockNumber": "0x255a50",
      "gasUsed": "0x1c451",
      "effectiveGasPrice": "0x3e645198",
      "from": "0xf7f012df63cc03a63154f1c73cfab3b94aca3f21",
      "to": "0x349e34cf714178c1efe87c2164d58a7184c23f30",
      "contractAddress": null
    }
  ],
  "libraries": [],
  "pending": [],
  "returns": {},
  "timestamp": 1773928755695,
  "chain": 560048,
  "commit": null
}