{
  "transactions": [
    {
      "hash": "0xe74ad73355121868e1a22ba324c47c221467d6acdcf89a31c0e74c3862db76fa",
      "transactionType": "CALL",
      "contractName": null,
      "contractAddress": "0x349e34cf714178c1efe87c2164d58a7184c23f30",
      "function": "depositToTN(uint256)",
      "arguments": [
        "5000000000000000000"
      ],
      "transaction": {
        "from": "0xf7f012df63cc03a63154f1c73cfab3b94aca3f21",
        "to": "0x349e34cf714178c1efe87c2164d58a7184c23f30",
        "gas": "0x1f237",
        "value": "0x0",
        "input": "0xf443ea610000000000000000000000000000000000000000000000004563918244f40000",
        "nonce": "0x6",
        "chainId": "0x88bb0"
      },
      "additionalContracts": [],
      "isFixedGasLimit": false
    }
  ],
  "receipts": [
    {
      "status": "0x1",
      "cumulativeGasUsed": "0x157792d",
      "logs": [
        {
          "address": "0x263ce78fef26600e4e428cebc91c2a52484b4fbf",
          "topics": [
            "0x8c5be1e5ebec7d5bd14f71427d1e84f3dd0314c0f7b2291e5b200ac8c7c3b925",
            "0x000000000000000000000000349e34cf714178c1efe87c2164d58a7184c23f30",
            "0x000000000000000000000000878d6aaeb6e746033f50b8dc268d54b4631554e7"
          ],
          "data": "0x0000000000000000000000000000000000000000000000004563918244f40000",
          "blockHash": "0x35ad6c0ec6a7bb48fabf197b4a2e192b731eb2b194c7acc2bab677b1e8c7558e",
          "blockNumber": "0x255a5b",
          "blockTimestamp": "0x69bc01b4",
          "transactionHash": "0xe74ad73355121868e1a22ba324c47c221467d6acdcf89a31c0e74c3862db76fa",
          "transactionIndex": "0x41",
          "logIndex": "0x7c",
          "removed": false
        },
        {
          "address": "0x263ce78fef26600e4e428cebc91c2a52484b4fbf",
          "topics": [
            "0xddf252ad1be2c89b69c2b068fc378daa952ba7f163c4a11628f55a4df523b3ef",
            "0x000000000000000000000000349e34cf714178c1efe87c2164d58a7184c23f30",
            "0x000000000000000000000000878d6aaeb6e746033f50b8dc268d54b4631554e7"
          ],
          "data": "0x0000000000000000000000000000000000000000000000004563918244f40000",
          "blockHash": "0x35ad6c0ec6a7bb48fabf197b4a2e192b731eb2b194c7acc2bab677b1e8c7558e",
          "blockNumber": "0x255a5b",
          "blockTimestamp": "0x69bc01b4",
          "transactionHash": "0xe74ad73355121868e1a22ba324c47c221467d6acdcf89a31c0e74c3862db76fa",
          "transactionIndex": "0x41",
          "logIndex": "0x7d",
          "removed": false
        },
        {
          "address": "0x878d6aaeb6e746033f50b8dc268d54b4631554e7",
          "topics": [
            "0xe1fffcc4923d04b559f4d29a8bfc6cda04eb5b0d3c460751c2402c5c5cc9109c",
            "0x000000000000000000000000f7f012df63cc03a63154f1c73cfab3b94aca3f21"
          ],
          "data": "0x0000000000000000000000000000000000000000000000004563918244f40000",
          "blockHash": "0x35ad6c0ec6a7bb48fabf197b4a2e192b731eb2b194c7acc2bab677b1e8c7558e",
          "blockNumber": "0x255a5b",
          "blockTimestamp": "0x69bc01b4",
          "transactionHash": "0xe74ad73355121868e1a22ba324c47c221467d6acdcf89a31c0e74c3862db76fa",
          "transactionIndex": "0x41",
          "logIndex": "0x7e",
          "removed": false
        },
        {
          "address": "0x349e34cf714178c1efe87c2164d58a7184c23f30",
          "topics": [
            "0xc095a50639f7ee0b6ec8af73d9bd6f36c05eb3db4f175f455e1a1f4d802836f3",
            "0x000000000000000000000000f7f012df63cc03a63154f1c73cfab3b94aca3f21"
          ],
          "data": "0x0000000000000000000000000000000000000000000000004563918244f40000",
          "blockHash": "0x35ad6c0ec6a7bb48fabf197b4a2e192b731eb2b194c7acc2bab677b1e8c7558e",
          "blockNumber": "0x255a5b",
          "blockTimestamp": "0x69bc01b4",
          "transactionHash": "0xe74ad73355121868e1a22ba324c47c221467d6acdcf89a31c0e74c3862db76fa",
          "transactionIndex": "0x41",
          "logIndex": "0x7f",
          "removed": false
        }
      ],
      "logsBloom": "0x00000000080000000000000000000000400000000000000000000000000000000000000000000000000040000000000000000040000100002000200000220000000000000000000000000018000000000000001000000080040000008800000000000000000000000010000000000000000000000000000000000010000000000000000000000000000000000000000000000001000000000000000000000000020000000000000000000000000200000000000000000000000000000000000000008002000000000004000000000008000000000000000080000000000000000010001000000000000000000000000000000000000000400000000080000000",
      "type": "0x2",
      "transactionHash": "0xe74ad73355121868e1a22ba324c47c221467d6acdcf89a31c0e74c3862db76fa",
      "transactionIndex": "0x41",
      "blockHash": "0x35ad6c0ec6a7bb48fabf197b4a2e192b731eb2b194c7acc2bab677b1e8c7558e",
      "blockNumber": "0x255a5b",
      "gasUsed": "0x154a9",
      "effectiveGasPrice": "0x41985aae",
      "from": "0xf7f012df63cc03a63154f1c73cfab3b94aca3f21",
      "to": "0x349e34cf714178c1efe87c2164d58a7184c23f30",
      "contractAddress": null
    }
  ],
  "libraries": [],
  "pending": [],
  "returns": {},
  "timestamp": 1773928887019,
  "chain": 560048,
  "commit": null
}